:020000040800F2
:10000000000002209D1C0008530500085905000847
:100010005F050008650500086B050008000000008A
:100020000000000000000000000000007105000852
:100030007F050008000000008D0500089B050008F2
:10004000ED1C0008ED1C0008ED1C0008ED1C00086C
:10005000ED1C0008ED1C0008ED1C0008ED1C00085C
:10006000ED1C0008ED1C0008ED1C0008ED1C00084C
:10007000ED1C0008ED1C0008ED1C0008ED1C00083C
:10008000ED1C0008ED1C0008ED1C0008000000003D
:10009000000000000000000000000000ED1C00084F
:1000A000ED1C0008ED1C0008ED1C0008ED1C00080C
:1000B000ED1C0008ED1C0008ED1C0008ED1C0008FC
:1000C000ED1C0008ED1C0008ED1C0008ED1C0008EC
:1000D000ED1C0008ED1C0008ED1C000800000000ED
:1000E000ED1C0008ED1C0008ED1C000800000000DD
:1000F000000000000000000000000000ED1C0008EF
:1001000000000000ED1C0008ED1C0008ED1C0008BC
:1001100000000000000000000000000000000000DF
:10012000ED1C0008ED1C0008ED1C0008ED1C00088B
:10013000ED1C0008000000000000000000000000AE
:10014000000000000000000000000000ED1C00089E
:10015000ED1C0008ED1C0008ED1C0008ED1C00085B
:10016000ED1C0008ED1C000800000000000000006D
:10017000000000000000000000000000000000007F
:1001800000000000ED1C000800000000000000005E
:08019000ED1C0008ED1C000845
:1001980053B94AB9002908BF00281CBF4FF0FF31E6
:1001A8004FF0FF3000F00CB8ADF1080C6DE904CE4B
:1001B80001F0C6FDDDF804E0DDE9022304B0704774
:1001C800704700BF0348044B834202D0034B03B17E
:1001D800184770471C0000201C0000200000000089
:1001E8000548064B1B1AD90F01EBA301491002D091
:1001F800034B03B1184770471C0000201C00002067
:100208000000000010B5064C237843B9FFF7DAFF69
:10021800044B13B10448AFF300800123237010BDD1
:100228001C000020000000001020000808B5054B45
:100238001BB105490548AFF30080BDE80840FFF74A
:10024800CFBF00BF000000002000002010200008E1
:1002580080B582B000AF01F075FC00F05DF800F0E9
:1002680015F900F0C1F8254800F04AFA642123483E
:1002780000F0FAFA214800F082FB0346204A136096
:100288001F4B1A681F4B1B68D21A13469B001A444F
:100298001D4B19681B4B1B68CB1AB2FBF3F3DAB280
:1002A8001A4B1A7000237B600BE0194A7B6832F8FE
:1002B800133000221946174801F044FB7B680133CC
:1002C8007B60124B1B781A467B689342EDDB0F4B21
:1002D8001B783B600BE00E4A3B6832F81330012272
:1002E80019460C4801F02EFB3B6801333B603B6824
:1002F800042BF0DD322001F097FCB4E73800002031
:1003080080000020840000200000002088000020D9
:10031800040000200000024080B594B000AF07F14F
:10032800200330220021184601F0DDFC07F10C0300
:1003380000221A605A609A60DA601A610023BB6072
:10034800274B1B6C264A43F080531364244B1B6CC9
:1003580003F08053BB60BB6800237B60214B1B68A4
:10036800204A43F4404313601E4B1B6803F4404388
:100378007B607B6802233B620123FB6210233B63A3
:100388000223BB630023FB6310233B64C0237B640D
:100398000223BB640423FB6407F12003184600F022
:1003A80029FD0346002B01D000F0CAF80F23FB609B
:1003B80002233B6100237B614FF48053BB61002320
:1003C800FB6107F10C030321184600F08BFF03467D
:1003D800002B01D000F0B4F800BF5037BD4680BDF7
:1003E800003802400070004080B584B000AF3B4642
:1003F80000221A605A609A60DA60214B214A1A601A
:100408001F4B4FF480325A601D4B00229A601C4BE0
:1004180000221A611A4B00221A76194B002283F81F
:100428002020174B0022DA62154B174A9A62144BA8
:100438000022DA60124B0122DA61114B002283F8A4
:1004480030200F4B01225A610D4800F015F9034680
:10045800002B01D000F074F800233B6001237B607F
:100468000023BB603B461946054800F095FA034651
:10047800002B01D000F064F800BF1037BD4680BDE6
:1004880038000020002001400100000F80B588B02E
:1004980000AF07F10C0300221A605A609A60DA6014
:1004A8001A610023BB60234B1B6B224A43F00403F1
:1004B8001363204B1B6B03F00403BB60BB68002372
:1004C8007B601C4B1B6B1B4A43F001031363194BE6
:1004D8001B6B03F001037B607B6800224FF4005123
:1004E800154801F02FFA0022F821144801F02AFAE1
:1004F8004FF40053FB6001233B6100237B61002321
:10050800BB6107F10C0319460B4801F097F8F82373
:10051800FB6001233B6100237B610023BB6107F182
:100528000C031946054801F089F800BF2037BD467D
:1005380080BD00BF003802400008024000000240B1
:1005480080B400AF72B600BFFEE780B400AFFEE72C
:1005580080B400AFFEE780B400AFFEE780B400AF20
:10056800FEE780B400AFFEE780B400AF00BFBD4631
:100578005DF8047B704780B400AF00BFBD465DF8EE
:10058800047B704780B400AF00BFBD465DF8047BB4
:10059800704780B500AF01F027FB00BF80BD0000A9
:1005A80080B483B000AF00237B60104B5B6C0F4AB4
:1005B80043F4804353640D4B5B6C03F480437B60CE
:1005C8007B6800233B60094B1B6C084A43F080534F
:1005D8001364064B1B6C03F080533B603B6800BF01
:1005E8000C37BD465DF8047B704700BF00380240F9
:1005F80080B58AB000AF786007F1140300221A6052
:100608005A609A60DA601A617B681B68174A9342DD
:1006180027D100233B61164B5B6C154A43F480736A
:100628005364134B5B6C03F480733B613B69002399
:10063800FB600F4B1B6B0E4A43F0010313630C4B1B
:100648001B6B03F00103FB60FB6801237B61032341
:10065800BB610023FB6107F114031946054800F04C
:10066800EDFF00BF2837BD4680BD00BF0020014018
:10067800003802400000024080B584B000AF7860C6
:100688000023FB737B68002B01D1012333E07B68D7
:100698001B6C002B09D17868FFF7AAFF7B68002242
:1006A8005A647B68002283F83C207B681B6C03F04B
:1006B8001003002B18D17B681B6C23F4885323F09C
:1006C800020343F002027B681A64786800F096FA25
:1006D8007B6800225A647B681B6C23F0030343F099
:1006E80001027B681A6401E00123FB737B68002226
:1006F80083F83C20FB7B18461037BD4680BD0000C0
:1007080080B485B000AF78600023BB607B6893F845
:100718003C30012B01D1022397E07B68012283F84A
:100728003C207B681B689B6803F00103012B18D0F1
:100738007B681B689A687B681B6842F001029A60B4
:10074800454B1B68454AA2FB03239A0C13465B00E2
:100758001344BB6002E0BB68013BBB60BB68002B75
:10076800F9D17B681B689B6803F00103012B5FD1FB
:100778007B681B6C23F4E06323F0010343F480726D
:100788007B681A647B681B685B6803F48063002BD2
:1007980007D07B681B6C23F4405343F480527B687A
:1007A8001A647B681B6C03F48053B3F5805F06D131
:1007B8007B685B6C23F006027B685A6402E07B6806
:1007C80000225A647B68002283F83C20244BFB609B
:1007D8007B681B686FF022021A60FB685B6803F095
:1007E8001F03002B0FD17B681B689B6803F04053E5
:1007F800002B29D17B681B689A687B681B6842F0CC
:1008080080429A6020E07B681B68164A93421BD19D
:100818007B681B689B6803F04053002B14D17B68EE
:100828001B689A687B681B6842F080429A600BE0FC
:100838007B681B6C43F010027B681A647B685B6CF6
:1008480043F001027B685A64002318461437BD46FA
:100858005DF8047B704700BF1800002083DE1B434F
:10086800002301400020014080B584B000AF7860CB
:1008780039600023FB607B681B689B6803F4806316
:10088800B3F5806F13D17B681B689B6803F4807392
:10089800B3F5807F0BD17B681B6C43F020027B682B
:1008A8001A647B68002283F83C20012363E001F08E
:1008B800AFF9F86021E03B68B3F1FF3F1DD03B681A
:1008C800002B07D001F0A4F90246FB68D31A3A6856
:1008D8009A4212D27B681B681B6803F00203022B42
:1008E8000BD07B681B6C43F004027B681A647B683E
:1008F800002283F83C2003233DE07B681B681B68CB
:1009080003F00203022BD6D17B681B686FF012023A
:100918001A607B681B6C43F400727B681A647B68FE
:100928001B689B6803F04053002B23D17B681B7E18
:10093800002B1FD17B681B68DB6A03F47003002B54
:1009480006D07B681B689B6803F48063002B11D179
:100958007B681B6C23F480727B681A647B681B6C51
:1009680003F48053002B05D17B681B6C43F0010214
:100978007B681A64002318461037BD4680BD80B4D2
:1009880083B000AF78607B681B68DB6C18460C3757
:10099800BD465DF8047B704780B485B000AF7860D1
:1009A80039600023BB607B6893F83C30012B01D190
:1009B800022313E17B68012283F83C203B681B6813
:1009C800092B25D97B681B68D9683B681B689BB2D3
:1009D8001A4613465B0013441E3B072202FA03F330
:1009E800DA437B681B680A40DA607B681B68D96851
:1009F8003B689A683B681B689BB2184603465B00D5
:100A080003441E3B9A407B681B680A43DA6022E075
:100A18007B681B6819693B681B689BB21A461346BA
:100A28005B001344072202FA03F3DA437B681B686E
:100A38000A401A617B681B6819693B689A683B68B9
:100A48001B689BB2184603465B0003449A407B68C8
:100A58001B680A431A613B685B68062B24D87B68CD
:100A68001B68596B3B685A6813469B001344053B47
:100A78001F2202FA03F3DA437B681B680A405A63B1
:100A88007B681B68596B3B681B689BB218463B68C0
:100A98005A6813469B001344053B00FA03F27B682F
:100AA8001B680A435A634CE03B685B680C2B24D8EC
:100AB8007B681B68196B3B685A6813469B00134494
:100AC800233B1F2202FA03F3DA437B681B680A40C0
:100AD8001A637B681B68196B3B681B689BB21846D6
:100AE8003B685A6813469B001344233B00FA03F201
:100AF8007B681B680A431A6323E07B681B68D96A12
:100B08003B685A6813469B001344413B1F2202FA74
:100B180003F3DA437B681B680A40DA627B681B6868
:100B2800D96A3B681B689BB218463B685A681346EB
:100B38009B001344413B00FA03F27B681B680A439D
:100B4800DA62294BFB607B681B68284A93420FD105
:100B58003B681B68122B0BD1FB685B6823F400020F
:100B6800FB685A60FB685B6843F48002FB685A6064
:100B78007B681B681D4A93422BD13B681B681C4A43
:100B8800934203D03B681B68112B22D1FB685B683A
:100B980023F48002FB685A60FB685B6843F4000238
:100BA800FB685A603B681B68114A934211D1114B8C
:100BB8001B68114AA2FB03239A0C13469B0013449B
:100BC8005B00BB6002E0BB68013BBB60BB68002BFD
:100BD800F9D17B68002283F83C200023184614379B
:100BE800BD465DF8047B70470023014000200140AA
:100BF800120000101800002083DE1B4380B485B06B
:100C080000AF7860794BFB60FB685B6823F4403287
:100C1800FB685A60FB685A687B685B681A43FB6824
:100C28005A607B681B685A687B681B6822F480726C
:100C38005A607B681B6859687B681B691A027B6865
:100C48001B680A435A607B681B685A687B681B6884
:100C580022F040725A607B681B6859687B689A6802
:100C68007B681B680A435A607B681B689A687B68C4
:100C78001B6822F400629A607B681B6899687B682D
:100C8800DA687B681B680A439A607B689B6A584AE3
:100C9800934222D07B681B689A687B681B6822F0A5
:100CA80070629A607B681B6899687B689A6A7B683F
:100CB8001B680A439A607B681B689A687B681B6894
:100CC80022F040529A607B681B6899687B68DA6AF0
:100CD8007B681B680A439A600FE07B681B689A6808
:100CE8007B681B6822F070629A607B681B689A6850
:100CF8007B681B6822F040529A607B681B689A6880
:100D08007B681B6822F002029A607B681B689968FE
:100D18007B681B7E5A007B681B680A439A607B6865
:100D280093F82030002B1BD07B681B685A687B68BF
:100D38001B6842F400625A607B681B685A687B68CB
:100D48001B6822F460425A607B681B6859687B689C
:100D58005B6A013B5A037B681B680A435A6007E0D9
:100D68007B681B685A687B681B6822F400625A60BB
:100D78007B681B68DA6A7B681B6822F47002DA6297
:100D88007B681B68D96A7B68DB69013B1A057B684D
:100D98001B680A43DA627B681B689A687B681B6871
:100DA80022F400729A607B681B6899687B6893F8E4
:100DB80030305A027B681B680A439A607B681B685C
:100DC8009A687B681B6822F480629A607B681B685B
:100DD80099687B685B699A027B681B680A439A601A
:100DE80000BF1437BD465DF8047B704700230140FF
:100DF8000100000F80B586B000AF78607B68002BDB
:100E080001D1012367E27B681B6803F00103002B13
:100E180075D0884B9B6803F00C03042B0CD0854BD2
:100E28009B6803F00C03082B12D1824B5B6803F418
:100E38008003B3F5800F0BD17E4B1B6803F400339E
:100E4800002B5BD07B685B68002B57D1012342E203
:100E58007B685B68B3F5803F06D1764B1B68754AA3
:100E680043F4803313601DE07B685B68B3F5A02F03
:100E78000CD1704B1B686F4A43F4802313606D4B91
:100E88001B686C4A43F4803313600BE0694B1B68A2
:100E9800684A23F480331360664B1B68654A23F461
:100EA800802313607B685B68002B13D000F0B0FED2
:100EB800386108E000F0ACFE02463B69D31A642BA7
:100EC80001D9032307E25B4B1B6803F40033002BB3
:100ED800F0D014E000F09CFE386108E000F098FEC5
:100EE80002463B69D31A642B01D90323F3E1514B22
:100EF8001B6803F40033002BF0D100E000BF7B68CF
:100F08001B6803F00203002B63D04A4B9B6803F075
:100F18000C03002B0BD0474B9B6803F00C03082BEA
:100F28001CD1444B5B6803F48003002B16D1414B62
:100F38001B6803F00203002B05D07B68DB68012BDC
:100F480001D00123C7E13B4B1B6823F0F8027B6803
:100F58001B69DB00374913430B603AE07B68DB68A9
:100F6800002B20D0344B01221A6000F051FE38616A
:100F780008E000F04DFE02463B69D31A022B01D966
:100F88000323A8E12B4B1B6803F00203002BF0D0CE
:100F9800284B1B6823F0F8027B681B69DB00254996
:100FA80013430B6015E0244B00221A6000F030FE5A
:100FB800386108E000F02CFE02463B69D31A022B88
:100FC80001D9032387E11B4B1B6803F00203002BA5
:100FD800F0D17B681B6803F00803002B36D07B68D0
:100FE8005B69002B16D0154B01221A6000F010FE29
:100FF800386108E000F00CFE02463B69D31A022B68
:1010080001D9032367E10B4B5B6F03F00203002B4D
:10101800F0D01BE0094B00221A6000F0F9FD38619E
:101028000EE000F0F5FD02463B69D31A022B07D902
:10103800032350E10038024000004742800E474237
:10104800884B5B6F03F00203002BEAD17B681B68B7
:1010580003F00403002B00F097800023FB75814BFD
:101068001B6C03F08053002B0FD10023BB607D4B1A
:101078001B6C7C4A43F0805313647A4B1B6C03F05F
:101088008053BB60BB680123FB75774B1B6803F477
:101098008073002B18D1744B1B68734A43F4807318
:1010A800136000F0B5FD386108E000F0B1FD0246BC
:1010B8003B69D31A022B01D903230CE16A4B1B6845
:1010C80003F48073002BF0D07B689B68012B06D15A
:1010D800644B1B6F634A43F0010313671CE07B6892
:1010E8009B68052B0CD15F4B1B6F5E4A43F00403D2
:1010F80013675C4B1B6F5B4A43F0010313670BE0FC
:10110800584B1B6F574A23F001031367554B1B6F4E
:10111800544A23F0040313677B689B68002B15D09F
:1011280000F076FD38610AE000F072FD02463B6986
:10113800D31A41F28832934201D90323CBE0494BB9
:101148001B6F03F00203002BEED014E000F060FDEB
:1011580038610AE000F05CFD02463B69D31A41F2AF
:101168008832934201D90323B5E03E4B1B6F03F04D
:101178000203002BEED1FB7D012B05D1394B1B6CF3
:10118800384A23F0805313647B689B69002B00F076
:10119800A180344B9B6803F00C03082B5CD07B6860
:1011A8009B69022B41D1314B00221A6000F030FDBF
:1011B800386108E000F02CFD02463B69D31A022B87
:1011C80001D9032387E0274B1B6803F00073002B2A
:1011D800F0D17B68DA697B681B6A1A437B685B6AB3
:1011E8009B011A437B689B6A5B08013B1B041A43FB
:1011F8007B68DB6A1B061B4913434B601B4B0122B0
:101208001A6000F005FD386108E000F001FD0246B3
:101218003B69D31A022B01D903235CE0114B1B68ED
:1012280003F00073002BF0D054E0104B00221A603A
:1012380000F0EEFC386108E000F0EAFC02463B6989
:10124800D31A022B01D9032345E0064B1B6803F090
:101258000073002BF0D13DE07B689B69012B07D11F
:10126800012338E000380240007000406000474227
:101278001B4B5B68FB607B689B69012B28D0FB6874
:1012880003F480027B68DB699A4221D1FB6803F092
:101298003F027B681B6A9A421AD1FA6847F6C07304
:1012A80013407A68526A9201934211D1FB6803F4A1
:1012B80040327B689B6A5B08013B1B049A4207D15A
:1012C800FB6803F070627B68DB6A1B069A4201D0F8
:1012D800012300E0002318461837BD4680BD00BF33
:1012E8000038024080B584B000AF786039607B6810
:1012F800002B01D10123CCE0684B1B6803F00703E6
:101308003A689A420CD9654B3A68D2B21A70634B64
:101318001B6803F007033A689A4201D00123B8E03A
:101328007B681B6803F00203002B20D07B681B68D6
:1013380003F00403002B05D0594B9B68584A43F42B
:10134800E05393607B681B6803F00803002B05D00B
:10135800534B9B68524A43F460439360504B9B68DD
:1013680023F0F0027B689B684D4913438B607B68D0
:101378001B6803F00103002B44D07B685B68012BDA
:1013880007D1474B1B6803F40033002B19D1012305
:101398007FE07B685B68022B03D07B685B68032B6C
:1013A80007D13F4B1B6803F00073002B09D10123C1
:1013B8006FE03B4B1B6803F00203002B01D10123B4
:1013C80067E0374B9B6823F003027B685B6834490E
:1013D80013438B6000F01CFCF8600AE000F018FC76
:1013E8000246FB68D31A41F28832934201D903239B
:1013F8004FE02B4B9B6803F00C027B685B689B00FB
:101408009A42EBD1254B1B6803F007033A689A42CE
:101418000CD2224B3A68D2B21A70204B1B6803F0E8
:1014280007033A689A4201D0012332E07B681B68BF
:1014380003F00403002B08D0194B9B6823F4E052F7
:101448007B68DB68164913438B607B681B6803F075
:101458000803002B09D0124B9B6823F460427B6879
:101468001B69DB000E4913438B6000F021F802462C
:101478000B4B9B681B0903F00F030A49CB5C22FA4C
:1014880003F3094A1360094B1B68184600F07CFBFC
:10149800002318461037BD4680BD00BF003C0240FF
:1014A8000038024028200008180000201000002002
:1014B8002DE9B04F90B000AF00237B630023FB639E
:1014C80000233B630023BB63594B9B6803F00C0369
:1014D800082B0DD0082B00F2A180002B02D0042B82
:1014E80003D09BE0534BBB639BE0534BBB6398E03B
:1014F8004F4B5B6803F03F037B634D4B5B6803F422
:101508008003002B28D04A4B5B689B0900223B6272
:101518007A623B6AC3F308000021474B03FB01F2E0
:10152800002300FB03F31344434AA0FB0212FA62B0
:101538000A46BA62FA6A1344FB627B6B0022BB61FB
:10154800FA61D7E90623D7E90A01FEF721FE024628
:101558000B461346FB6353E0354B5B689B0900223F
:101568003B617A613B69C3F3080A4FF0000B5246AE
:101578005B464FF000004FF00001590141EAD2618B
:10158800500102460B46B2EB0A0863EB0B094FF019
:1015980000024FF000034FEA891343EA98634FEAC9
:1015A8008812B2EB080463EB09054FF000024FF014
:1015B8000003EB0043EA5473E20014461D4614EBA3
:1015C8000A033B6045EB0B037B604FF000024FF0D2
:1015D8000003D7E9004529468B02214643EA915387
:1015E80021468A02104619467B6B0022BB60FA60CE
:1015F800D7E90223FEF7CCFD02460B461346FB63F0
:101608000B4B5B681B0C03F0030301335B003B636C
:10161800FA6B3B6BB2FBF3F3BB6302E0054BBB63B6
:1016280000BFBB6B18464037BD46BDE8B08F00BF52
:10163800003802400024F40040787D0180B489B06D
:1016480000AF7860396000237B6100233B61002391
:10165800BB610023FB6159E10122FB6902FA03F334
:101668007B613B681B687A6913403B613A697B6917
:101678009A4240F048813B685B6803F00303012B02
:1016880005D03B685B6803F00303022B30D17B680D
:101698009B68BB61FB695B00032202FA03F3DB432F
:1016A800BA691340BB613B68DA68FB695B0002FA00
:1016B80003F3BA691343BB617B68BA699A607B68B4
:1016C8005B68BB610122FB6902FA03F3DB43BA6979
:1016D8001340BB613B685B681B0903F00102FB69AF
:1016E80002FA03F3BA691343BB617B68BA695A60AB
:1016F8003B685B6803F00303032B17D07B68DB6848
:10170800BB61FB695B00032202FA03F3DB43BA699E
:101718001340BB613B689A68FB695B0002FA03F3FC
:10172800BA691343BB617B68BA69DA603B685B6876
:1017380003F00303022B23D1FB69DA087B68083224
:1017480053F82230BB61FB6903F007039B000F22AB
:1017580002FA03F3DB43BA691340BB613B681A69B9
:10176800FB6903F007039B0002FA03F3BA6913430A
:10177800BB61FB69DA087B680832B96943F8221053
:101788007B681B68BB61FB695B00032202FA03F3F9
:10179800DB43BA691340BB613B685B6803F0030233
:1017A800FB695B0002FA03F3BA691343BB617B6808
:1017B800BA691A603B685B6803F44033002B00F099
:1017C800A2800023FB60574B5B6C564A43F480436E
:1017D8005364544B5B6C03F48043FB60FB68524AD0
:1017E800FB699B08023352F82330BB61FB6903F0A5
:1017F80003039B000F2202FA03F3DB43BA69134089
:10180800BB617B68494A934219D07B68484A934236
:1018180013D07B68474A93420DD07B68464A93426F
:1018280007D07B68454A934201D1042308E0072387
:1018380006E0032304E0022302E0012300E0002382
:10184800FA6902F0030292009340BA691343BB613C
:101858003549FB699B080233BA6941F82320384BA4
:101868009B68BB613B69DB43BA691340BB613B685A
:101878005B6803F48013002B03D0BA693B691343F8
:10188800BB612F4ABB6993602D4BDB68BB613B6929
:10189800DB43BA691340BB613B685B6803F4001320
:1018A800002B03D0BA693B691343BB61244ABB6967
:1018B800D360234B5B68BB613B69DB43BA69134068
:1018C800BB613B685B6803F40033002B03D0BA6943
:1018D8003B691343BB611A4ABB695360184B1B68C9
:1018E800BB613B69DB43BA691340BB613B685B681A
:1018F80003F48033002B03D0BA693B691343BB61FF
:101908000F4ABB691360FB690133FB61FB690F2B4D
:101918007FF6A2AE00BF00BF2437BD465DF8047B4A
:10192800704700BF00380240003801400000024004
:101938000004024000080240000C0240001002406F
:10194800003C014080B483B000AF78600B467B80D8
:1019580013467B707B78002B03D07A887B689A616A
:1019680003E07B881A047B689A6100BF0C37BD4688
:101978005DF8047B7047000080B485B000AF7860E4
:101988007B6803F00703FB600C4BDB68BB60BA683D
:101998004FF6FF031340BB60FB681A02BB68134392
:1019A80043F0BF6343F40033BB60044ABB68D360B1
:1019B80000BF1437BD465DF8047B704700ED00E0BA
:1019C80080B400AF044BDB681B0A03F0070318461A
:1019D800BD465DF8047B704700ED00E080B483B03D
:1019E80000AF03463960FB7197F90730002B0ADB1B
:1019F8003B68DAB20C4997F907301201D2B20B44AE
:101A080083F800230AE03B68DAB20849FB7903F05F
:101A18000F03043B1201D2B20B441A7600BF0C37F5
:101A2800BD465DF8047B704700E100E000ED00E092
:101A380080B489B000AFF860B9607A60FB6803F0E1
:101A48000703FB61FB69C3F10703042B28BF0423C9
:101A5800BB61FB690433062B02D9FB69033B00E039
:101A680000237B614FF0FF32BB6902FA03F3DA43CC
:101A7800BB681A407B699A404FF0FF317B6901FAD5
:101A880003F3D9437B680B40134318462437BD46FC
:101A98005DF8047B7047000080B582B000AF7860C5
:101AA8007B68013BB3F1807F01D301230FE00A4A31
:101AB8007B68013B53600F214FF0FF30FFF78EFF2B
:101AC800054B00229A60044B07221A60002318462F
:101AD8000837BD4680BD00BF10E000E080B582B089
:101AE80000AF78607868FFF747FF00BF0837BD464A
:101AF80080BD80B586B000AF0346B9607A60FB73DD
:101B080000237B61FFF75CFF78617A68B9687869C0
:101B1800FFF78EFF024697F90F3011461846FFF778
:101B28005DFF00BF1837BD4680BD80B582B000AFED
:101B380078607868FFF7B0FF034618460837BD4657
:101B480080BD000080B500AF0E4B1B680D4A43F402
:101B5800007313600B4B1B680A4A43F480631360DD
:101B6800084B1B68074A43F4807313600320FFF790
:101B7800B5FF0F2000F008F8FEF712FD0023184605
:101B880080BD00BF003C024080B582B000AF7860E5
:101B9800124B1A68124B1B7819464FF47A73B3FB31
:101BA800F1F3B2FBF3F31846FFF7BFFF0346002B30
:101BB80001D001230EE07B680F2B0AD80022796838
:101BC8004FF0FF30FFF795FF064A7B68136000234C
:101BD80000E0012318460837BD4680BD18000020E4
:101BE800140000201000002080B400AF064B1B78C2
:101BF8001A46064B1B681344044A136000BFBD46CF
:101C08005DF8047B704700BF140000208C000020A2
:101C180080B400AF034B1B681846BD465DF8047BD3
:101C2800704700BF8C00002080B584B000AF78609A
:101C3800FFF7EEFFB8607B68FB60FB68B3F1FF3F1E
:101C480005D00A4B1B781A46FB681344FB6000BF9B
:101C5800FFF7DEFF0246BB68D31AFA689A42F7D844
:101C680000BF00BF1037BD4680BD00BF1400002074
:101C780080B400AF064BD3F88830054A43F47003AC
:101C8800C2F8883000BFBD465DF8047B704700BFCE
:101C980000ED00E0DFF834D00D480E490E4A00236D
:101CA80002E0D458C4500433C4188C42F9D30B4A08
:101CB8000B4C002301E013600432A242FBD3FFF770
:101CC800D7FF00F019F8FEF7C3FA704700000220AA
:101CD800000000201C000020482000081C000020F4
:101CE80090000020FEE702440346934200D170476B
:101CF80003F8011BF9E7000070B50D4D0D4C641B8E
:101D0800A4100026A64209D10B4D0C4C00F07CF91A
:101D1800641BA4100026A64205D170BD55F8043BEB
:101D280098470136EEE755F8043B98470136F2E745
:101D380040200008402000084020000844200008F7
:101D48002DE9F047089E0D4604460F46002B4AD160
:101D58008A42944665D9B2FA82F343B102FA03FC87
:101D6800C3F120029F4020FA02F217439C404FEA39
:101D78001C4E1FFA8CF5B7FBFEF1220C0EFB1177F7
:101D880042EA074201FB05F090420AD91CEB020225
:101D980001F1FF3780F01C81904240F2198102392D
:101DA8006244121AA4B2B2FBFEF00EFB102244EAFF
:101DB800024400FB05F5A5420AD91CEB040400F116
:101DC800FF3280F00781A54240F204816444023862
:101DD80040EA0140641B00211EB1DC400023C6E933
:101DE8000043BDE8F0878B4208D9002E00F0ED8053
:101DF8000021C6E900050846BDE8F087B3FA83F17B
:101E0800002949D1AB4202D3824200F2F880841AF9
:101E180065EB030201201746002EE2D0C6E9004711
:101E2800DFE702B9FFDEB2FA82F3002B40F09080C0
:101E38008A1A4FEA1C471FFA8CFE0121B2FBF7F5FC
:101E480007FB1520220C42EA00420EFB05F09042E7
:101E580008D91CEB020205F1FF3802D2904200F2C9
:101E6800CB804546121AA4B2B2FBF7F007FB10224A
:101E780044EA02440EFB00FEA64508D91CEB040404
:101E880000F1FF3202D2A64500F2BB801046A4EB57
:101E98000E0440EA05409FE7C1F120078B4022FA73
:101EA80007FC4CEA030C05FA01F420FA07F3FD409D
:101EB8004FEA1C492343B5FBF9F81FFA8CFE09FBCE
:101EC80018551C0C44EA054408FB0EF5A54202FA15
:101ED80001F200FA01F00BD91CEB040408F1FF3AF7
:101EE80080F08880A54240F28580A8F10208644409
:101EF800641B9DB2B4FBF9F309FB134445EA04449F
:101F080003FB0EFEA64508D91CEB040403F1FF35BC
:101F18006CD2A6456AD9023B644443EA0843A3FB52
:101F28000295A4EB0E04AC42C846AE4656D353D035
:101F380056B1B0EB080264EB0E0404FA07F7CA4086
:101F4800CC401743C6E9007418460021BDE8F08765
:101F5800C3F1200102FA03FC20FA01F225FA01F18B
:101F68009D402A434FEA1C471FFA8CFEB1FBF7F04D
:101F780007FB1015110C41EA054100FB0EF58D42D7
:101F880004FA03F408D91CEB010100F1FF382FD241
:101F98008D422DD902386144491B92B2B1FBF7F545
:101FA80007FB151142EA014205FB0EF1914208D9DF
:101FB8001CEB020205F1FF3816D2914214D9023DFA
:101FC8006244521A45EA004138E73146304608E78C
:101FD8003946E6E61046FBE64845A9D2B9EB0208C1
:101FE80065EB0C0E013BA3E74546EAE72B4694E771
:101FF8004046D1E7D0467BE7023D624432E70846D7
:102008000AE76444023842E7F8B500BFF8BC08BCE8
:102018009E467047F8B500BFF8BC08BC9E4670479E
:102028000000000000000000010203040607080980
:0820380010FDFF7F0100000014
:04204000350200085D
:042044000D02000881
:10204800FF0F000008001000200040008000000082
:0C20580010000000010000000024F40053
:0400000508001C9D36
:00000001FF
