:020000040800F2
:1000000000000220591F0008D90F0008E10F000866
:10001000E90F0008F10F0008F90F000800000000C8
:1000200000000000000000000000000001100008B7
:100030000F100008000000001D1000082B10000821
:10004000A91F0008A91F0008A91F0008A91F000870
:10005000A91F0008A91F0008A91F0008A91F000860
:10006000A91F0008A91F0008A91F0008A91F000850
:10007000A91F0008A91F0008A91F0008A91F000840
:10008000A91F0008A91F0008A91F00080000000000
:10009000000000000000000000000000A91F000890
:1000A000A91F0008A91F0008A91F0008A91F000810
:1000B000A91F0008A91F0008A91F0008A91F000800
:1000C000A91F0008A91F0008A91F0008A91F0008F0
:1000D000A91F0008A91F0008A91F000800000000B0
:1000E000A91F0008A91F0008A91F000800000000A0
:1000F000000000000000000000000000A91F000830
:1001000000000000A91F0008A91F0008A91F00087F
:1001100000000000000000000000000000000000DF
:10012000A91F0008A91F0008A91F0008A91F00088F
:10013000A91F0008000000000000000000000000EF
:10014000000000000000000000000000A91F0008DF
:10015000A91F0008A91F0008A91F0008A91F00085F
:10016000A91F0008A91F00080000000000000000EF
:10017000000000000000000000000000000000007F
:1001800000000000A91F000800000000000000009F
:08019000A91F0008A91F0008C7
:1001980081F0004102E000BF83F0004330B54FEA30
:1001A80041044FEA430594EA050F08BF90EA020F9D
:1001B8001FBF54EA000C55EA020C7FEA645C7FEA30
:1001C800655C00F0E2804FEA5454D4EB5555B8BF53
:1001D8006D420CDD2C4480EA020281EA030382EAC4
:1001E800000083EA010180EA020281EA0303362D56
:1001F80088BF30BD11F0004F4FEA01314FF4801C29
:100208004CEA113102D0404261EB410113F0004F3A
:100218004FEA03334CEA133302D0524263EB4303F1
:1002280094EA050F00F0A780A4F10104D5F1200E8F
:100238000DDB02FA0EFC22FA05F2801841F10001EA
:1002480003FA0EF2801843FA05F359410EE0A5F1BE
:1002580020050EF1200E012A03FA0EFC28BF4CF0EF
:10026800020C43FA05F3C01851EBE37101F00045A5
:1002780007D54FF0000EDCF1000C7EEB00006EEBB2
:100288000101B1F5801F1BD3B1F5001F0CD349083C
:100298005FEA30004FEA3C0C04F101044FEA445293
:1002A80012F5800F80F09A80BCF1004F08BF5FEA1A
:1002B800500C50F1000041EB045141EA050130BDFA
:1002C8005FEA4C0C404141EB0101013C28BFB1F50C
:1002D800801FE9D291F0000F04BF01460020B1FA57
:1002E80081F308BF2033A3F10B03B3F120020CDA2A
:1002F8000C3208DD02F1140CC2F10C0201FA0CF008
:1003080021FA02F10CE002F11402D8BFC2F1200C6C
:1003180001FA02F120FA0CFCDCBF41EA0C01904022
:10032800E41AA2BF01EB0451294330BD6FEA04046B
:100338001F3C1CDA0C340EDC04F11404C4F1200256
:1003480020FA04F001FA02F340EA030021FA04F368
:1003580045EA030130BDC4F10C04C4F1200220FABF
:1003680002F001FA04F340EA0300294630BD21FAFD
:1003780004F0294630BD94F0000F83F4801306BFC3
:1003880081F480110134013D4EE77FEA645C18BFB7
:100398007FEA655C29D094EA050F08BF90EA020F4E
:1003A80005D054EA000C04BF1946104630BD91EA46
:1003B800030F1EBF0021002030BD5FEA545C05D149
:1003C8004000494128BF41F0004130BD14F5800488
:1003D8003CBF01F5801130BD01F0004545F0FE41FC
:1003E80041F470014FF0000030BD7FEA645C1ABF31
:1003F800194610467FEA655C1CBF0B46024650EA68
:10040800013406BF52EA033591EA030F41F4002193
:1004180030BD00BF90F0000F04BF0021704730B519
:100428004FF4806404F132044FF000054FF00001EE
:1004380050E700BF90F0000F04BF0021704730B5AF
:100448004FF4806404F1320410F0004548BF404284
:100458004FF000013EE700BF42004FEAE2014FEAD9
:1004680031014FEA02701FBF12F07F4393F07F4FB4
:1004780081F06051704732F07F4208BF704793F0B7
:100488007F4F04BF41F40021704730B54FF46074CA
:1004980001F0004521F000411CE700BF50EA0102CD
:1004A80008BF704730B54FF000050AE050EA010276
:1004B80008BF704730B511F0004502D5404261EBE6
:1004C80041014FF4806404F132045FEA915C3FF427
:1004D800D8AE4FF003025FEADC0C18BF03325FEAC4
:1004E800DC0C18BF033202EBDC02C2F1200300FA75
:1004F80003FC20FA02F001FA03FE40EA0E0021FA9A
:1005080002F11444BDE600BF70B54FF0FF0C4CF487
:10051800E06C1CEA11541DBF1CEA135594EA0C0F39
:1005280095EA0C0F00F0DEF82C4481EA030621EA74
:100538004C5123EA4C5350EA013518BF52EA0335AF
:1005480041F4801143F4801338D0A0FB02CE4FF061
:100558000005E1FB02E506F00042E0FB03E54FF091
:100568000006E1FB03569CF0000F18BF4EF0010E89
:10057800A4F1FF04B6F5007F64F5407404D25FEA85
:100588004E0E6D4146EB060642EAC62141EA555138
:100598004FEAC52040EA5E504FEACE2EB4F1FD0C7A
:1005A80088BFBCF5E06F1ED8BEF1004F08BF5FEAF8
:1005B800500E50F1000041EB045170BD06F00046AA
:1005C80046EA010140EA020081EA0301B4EB5C0457
:1005D800C2BFD4EB0C0541EA045170BD41F480114F
:1005E8004FF0000E013C00F3AB8014F1360FDEBF74
:1005F800002001F0004170BDC4F10004203C35DA50
:100608000C341BDC04F11404C4F1200500FA05F3D2
:1006180020FA04F001FA05F240EA020001F0004273
:1006280021F0004110EBD37021FA04F642EB0601E9
:100638005EEA430E08BF20EAD37070BDC4F10C0413
:10064800C4F1200500FA04F320FA05F001FA04F2D7
:1006580040EA020001F0004110EBD37041F10001C3
:100668005EEA430E08BF20EAD37070BDC4F12005CE
:1006780000FA05F24EEA020E20FA04F301FA05F236
:1006880043EA020321FA04F001F0004121FA04F2DE
:1006980020EA020000EBD3705EEA430E08BF20EAAE
:1006A800D37070BD94F0000F0FD101F000464000E8
:1006B80041EB010111F4801F08BF013CF7D041EA6A
:1006C800060195F0000F18BF704703F0004652006E
:1006D80043EB030313F4801F08BF013DF7D043EA3F
:1006E8000603704794EA0C0F0CEA135518BF95EAF5
:1006F8000C0F0CD050EA410618BF52EA4306D1D17C
:1007080081EA030101F000414FF0000070BD50EA9A
:10071800410606BF1046194652EA430619D094EA24
:100728000C0F02D150EA013613D195EA0C0F05D10E
:1007380052EA03361CBF104619460AD181EA030162
:1007480001F0004141F0FE4141F470014FF000001A
:1007580070BD41F0FE4141F4780170BD70B54FF0B5
:10076800FF0C4CF4E06C1CEA11541DBF1CEA135535
:1007780094EA0C0F95EA0C0F00F0A7F8A4EB050417
:1007880081EA030E52EA03354FEA013100F088800E
:100798004FEA03334FF0805545EA131343EA1263D7
:1007A8004FEA022245EA111545EA10654FEA00268C
:1007B8000EF000419D4208BF964244F1FD0404F545
:1007C800407402D25B084FEA3202B61A65EB0305A1
:1007D8005B084FEA32024FF480104FF4002CB6EB5E
:1007E800020E75EB030E22BFB61A754640EA0C00DE
:1007F8005B084FEA3202B6EB020E75EB030E22BF1E
:10080800B61A754640EA5C005B084FEA3202B6EB5E
:10081800020E75EB030E22BFB61A754640EA9C001D
:100828005B084FEA3202B6EB020E75EB030E22BFED
:10083800B61A754640EADC0055EA060E18D04FEAAB
:10084800051545EA16754FEA06164FEAC30343EA4B
:1008580052734FEAC2025FEA1C1CC0D111F4801F18
:100868000BD141EA00014FF000004FF0004CB6E711
:1008780011F4801F04BF01430020B4F1FD0C88BFB0
:10088800BCF5E06F3FF6AFAEB5EB030C04BFB6EBBB
:10089800020C5FEA500C50F1000041EB045170BDAE
:1008A8000EF0004E4EEA113114EB5C04C2BFD4EBDB
:1008B8000C0541EA045170BD41F480114FF0000E5F
:1008C800013C90E645EA060E8DE60CEA135594EADB
:1008D8000C0F08BF95EA0C0F3FF43BAF94EA0C0FDE
:1008E8000AD150EA01347FF434AF95EA0C0F7FF453
:1008F80025AF104619462CE795EA0C0F06D152EAA7
:1009080003353FF4FDAE1046194622E750EA41068A
:1009180018BF52EA43067FF4C5AE50EA41047FF49B
:100928000DAF52EA43057FF4EBAE12E74FF0FF3C00
:1009380006E000BF4FF0010C02E000BF4FF0010CD1
:100948004DF804CD4FEA410C7FEA6C5C4FEA430C4A
:1009580018BF7FEA6C5C1BD001B050EA410C0CBF99
:1009680052EA430C91EA030F02BF90EA020F0020FB
:10097800704710F1000F91EA030F58BF994208BF62
:1009880090422CBFD8176FEAE37040F0010070471F
:100998004FEA410C7FEA6C5C02D150EA013C07D176
:1009A8004FEA430C7FEA6C5CD6D152EA033CD3D0C1
:1009B8005DF8040B704700BF8446104662468C46BB
:1009C8001946634600E000BF01B5FFF7B7FF0028EE
:1009D80048BF10F1000F01BD4DF808EDFFF7F4FF17
:1009E8000CBF012000205DF808FB00BF4DF808EDA2
:1009F800FFF7EAFF34BF012000205DF808FB00BFC5
:100A08004DF808EDFFF7E0FF94BF012000205DF8E6
:100A180008FB00BF4DF808EDFFF7CEFF94BF01209B
:100A280000205DF808FB00BF4DF808EDFFF7C4FF94
:100A380034BF012000205DF808FB00BF53B94AB954
:100A4800002908BF00281CBF4FF0FF314FF0FF30CE
:100A580000F00CB8ADF1080C6DE904CE01F0CEFA47
:100A6800DDF804E0DDE9022304B07047704700BFF9
:100A78000348044B834202D0034B03B11847704725
:100A88000C0000200C000020000000000548064B68
:100A98001B1AD90F01EBA301491002D0034B03B174
:100AA800184770470C0000200C00002000000000D0
:100AB80010B5064C237843B9FFF7DAFF044B13B19E
:100AC8000448AFF300800123237010BD0C00002000
:100AD80000000000C022000808B5054B1BB10549FD
:100AE8000548AFF30080BDE80840FFF7CFBF00BF5F
:100AF8000000000010000020C022000880B582B06D
:100B080000AF0023FB8000237B710122802117485E
:100B180001F076F8322001F0E5F90022802113482F
:100B280001F06EF802E07B7901337B7100224021ED
:100B38000E4800F0DBF90346002BF4D107E0FB88F0
:100B48000133FB80FB8842F21072934208D80122DD
:100B58004021064800F0CAF90346002BEFD100E017
:100B680000BFFB8818460837BD4680BD000002401C
:100B780080B586B000AF0023FB824FF000024FF033
:100B88000003C7E90223384A3B4692E8030018608D
:100B98000433198001F034F900F070F800F0D6F849
:100BA8000023FB8200224FF40071304800F0E2F984
:100BB8000346002BF6D0012280212C4801F020F8B2
:100BC800782001F08FF900228021284801F018F8D8
:100BD800FFF794FF0346FB82FB8A1846FFF72AFCBF
:100BE8004FF00002224BFFF7B9FD02460B46C7E95A
:100BF80002234FF000021F4BD7E90201FFF7F6FE70
:100C08000346002B1AD04FF000024FF00003D7E93B
:100C18000201FFF7E1FE0346002B0FD1012220213C
:100C2800154800F0EDFF01224021134800F0E8FFCD
:100C380000228021104800F0E3FF0EE0002220216E
:100C48000D4800F0DDFF002240210B4800F0D8FFDE
:100C580001228021084800F0D3FF4FF000024FF036
:100C68000003C7E902239DE7D822000800000240DC
:100C780000000440000059400004024080B594B0D0
:100C880000AF07F1200330220021184601F089F94E
:100C980007F10C0300221A605A609A60DA601A6140
:100CA8000023BB60274B1B6C264A43F08053136418
:100CB800244B1B6C03F08053BB60BB6800237B6034
:100CC800214B1B68204A43F4404313601E4B1B68AA
:100CD80003F440437B607B6801233B624FF480331D
:100CE8007B620223BB634FF48003FB6319233B64DD
:100CF800C0237B640223BB640423FB6407F1200345
:100D0800184600F0BDF90346002B01D000F0E8F8C2
:100D18000F23FB6002233B6100237B614FF4805368
:100D2800BB610023FB6107F10C030321184600F0A7
:100D38001FFC0346002B01D000F0D2F800BF50374B
:100D4800BD4680BD003802400070004080B59EB0AE
:100D580000AF07F1640300221A605A609A60DA60F3
:100D68001A6107F1500300221A605A609A60DA602B
:100D78001A6100233B61564B1B6B554A43F0040331
:100D88001363534B1B6B03F004033B613B69002364
:100D9800FB604F4B1B6B4E4A43F0020313634C4BF3
:100DA8001B6B03F00203FB60FB680023BB60484B2E
:100DB8001B6B474A43F080031363454B1B6B03F0DF
:100DC8008003BB60BB6800237B60414B1B6B404AC0
:100DD80043F0010313633E4B1B6B03F001037B607D
:100DE8007B6800224FF400513A4800F009FF0022C6
:100DF8004FF6FF71384800F003FF00224FF6FF71ED
:100E0800364800F0FDFEE0233B6501237B650023A7
:100E1800BB650023FB6507F1500319462E4800F017
:100E280053FD4FF400537B660123BB660023FB662A
:100E380000233B6707F164031946264800F044FD88
:100E480007F13C0300221A605A609A60DA601A615E
:100E58004FF40073FB6300233B6400237B6400238F
:100E6800BB6407F13C0319461C4800F02DFD07F14F
:100E7800280300221A605A609A60DA601A61802397
:100E8800BB620123FB6200233B6300237B6307F102
:100E980028031946114800F017FD07F11403002232
:100EA8001A605A609A60DA601A6140237B610023F5
:100EB800BB610023FB6100233B6207F11403194661
:100EC800064800F001FD00BF7837BD4680BD00BF71
:100ED80000380240000802400004024000000240BE
:100EE80080B400AF72B600BF00BFFDE780B586B022
:100EF80000AF78600B467B8013463B800223FB6083
:100F08000023FB740023BB7400233B8200237B6116
:100F180015E07B881946786800F05AFE0346002BD6
:100F280005D0FB7C0133FB740023BB7404E0BB7C5D
:100F38000133BB740023FB747B6901337B617A69DD
:100F4800FB689A42E5D33B88002B07D0FA7CFB6804
:100F58005B089A4209D9FF233B8206E0BA7CFB680A
:100F68005B089A4201D9FF233B823B8A184618370F
:100F7800BD4680BD80B582B000AF78600B467B80EF
:100F880013463B803A887B8819467868FFF7AEFF9E
:100F98000346002B17D03B88002B09D000BF7B8865
:100FA8001946786800F014FE0346002BF7D108E0D4
:100FB80000BF7B881946786800F00AFE0346002BBC
:100FC800F7D0FF2300E0002318460837BD4680BD50
:100FD80080B400AF00BFFDE780B400AF00BFFDE7FD
:100FE80080B400AF00BFFDE780B400AF00BFFDE7ED
:100FF80080B400AF00BFFDE780B400AF00BFBD46BE
:101008005DF8047B704780B400AF00BFBD465DF853
:10101800047B704780B400AF00BFBD465DF8047B19
:10102800704780B500AF00F03DFF00BF80BD0000F5
:1010380080B483B000AF00237B60104B5B6C0F4A19
:1010480043F4804353640D4B5B6C03F480437B6033
:101058007B6800233B60094B1B6C084A43F08053B4
:101068001364064B1B6C03F080533B603B6800BF66
:101078000C37BD465DF8047B704700BF003802405E
:1010880080B586B000AF78607B68002B01D1012362
:1010980067E27B681B6803F00103002B75D0884B5F
:1010A8009B6803F00C03042B0CD0854B9B6803F062
:1010B8000C03082B12D1824B5B6803F48003B3F551
:1010C800800F0BD17E4B1B6803F40033002B5BD0E1
:1010D8007B685B68002B57D1012342E27B685B6821
:1010E800B3F5803F06D1764B1B68754A43F48033CD
:1010F80013601DE07B685B68B3F5A02F0CD1704BC3
:101108001B686F4A43F4802313606D4B1B686C4A5D
:1011180043F4803313600BE0694B1B68684A23F47F
:1011280080331360664B1B68654A23F48023136081
:101138007B685B68002B13D000F0C8FE386108E0BC
:1011480000F0C4FE02463B69D31A642B01D903237D
:1011580007E25B4B1B6803F40033002BF0D014E06C
:1011680000F0B4FE386108E000F0B0FE02463B69CA
:10117800D31A642B01D90323F3E1514B1B6803F401
:101188000033002BF0D100E000BF7B681B6803F040
:101198000203002B63D04A4B9B6803F00C03002B1F
:1011A8000BD0474B9B6803F00C03082B1CD1444B16
:1011B8005B6803F48003002B16D1414B1B6803F0D6
:1011C8000203002B05D07B68DB68012B01D00123CB
:1011D800C7E13B4B1B6823F0F8027B681B69DB0007
:1011E800374913430B603AE07B68DB68002B20D05B
:1011F800344B01221A6000F069FE386108E000F003
:1012080065FE02463B69D31A022B01D90323A8E1E4
:101218002B4B1B6803F00203002BF0D0284B1B68F4
:1012280023F0F8027B681B69DB00254913430B6038
:1012380015E0244B00221A6000F048FE386108E0EF
:1012480000F044FE02463B69D31A022B01D903235E
:1012580087E11B4B1B6803F00203002BF0D17B686E
:101268001B6803F00803002B36D07B685B69002BF2
:1012780016D0154B01221A6000F028FE386108E0EC
:1012880000F024FE02463B69D31A022B01D903233E
:1012980067E10B4B5B6F03F00203002BF0D01BE000
:1012A800094B00221A6000F011FE38610EE000F0D0
:1012B8000DFE02463B69D31A022B07D9032350E1DE
:1012C8000038024000004742800E4742884B5B6F5F
:1012D80003F00203002BEAD17B681B6803F00403C8
:1012E800002B00F097800023FB75814B1B6C03F0EB
:1012F8008053002B0FD10023BB607D4B1B6C7C4AB5
:1013080043F0805313647A4B1B6C03F08053BB602B
:10131800BB680123FB75774B1B6803F48073002BB4
:1013280018D1744B1B68734A43F48073136000F040
:10133800CDFD386108E000F0C9FD02463B69D31ACB
:10134800022B01D903230CE16A4B1B6803F4807359
:10135800002BF0D07B689B68012B06D1644B1B6F78
:10136800634A43F0010313671CE07B689B68052B05
:101378000CD15F4B1B6F5E4A43F0040313675C4B51
:101388001B6F5B4A43F0010313670BE0584B1B6F5D
:10139800574A23F001031367554B1B6F544A23F038
:1013A800040313677B689B68002B15D000F08EFD43
:1013B80038610AE000F08AFD02463B69D31A41F21F
:1013C8008832934201D90323CBE0494B1B6F03F0CA
:1013D8000203002BEED014E000F078FD38610AE03B
:1013E80000F074FD02463B69D31A41F288329342F9
:1013F80001D90323B5E03E4B1B6F03F00203002B1A
:10140800EED1FB7D012B05D1394B1B6C384A23F0FB
:10141800805313647B689B69002B00F0A180344BD8
:101428009B6803F00C03082B5CD07B689B69022B3C
:1014380041D1314B00221A6000F048FD386108E0C4
:1014480000F044FD02463B69D31A022B01D903235D
:1014580087E0274B1B6803F00073002BF0D17B68F3
:10146800DA697B681B6A1A437B685B6A9B011A43CB
:101478007B689B6A5B08013B1B041A437B68DB6A39
:101488001B061B4913434B601B4B01221A6000F0DB
:101498001DFD386108E000F019FD02463B69D31ACA
:1014A800022B01D903235CE0114B1B6803F0007386
:1014B800002BF0D054E0104B00221A6000F006FD1B
:1014C800386108E000F002FD02463B69D31A022B9E
:1014D80001D9032345E0064B1B6803F00073002B7A
:1014E800F0D13DE07B689B69012B07D1012338E0EF
:1014F8000038024000700040600047421B4B5B68A8
:10150800FB607B689B69012B28D0FB6803F4800291
:101518007B68DB699A4221D1FB6803F03F027B6854
:101528001B6A9A421AD1FA6847F6C07313407A6860
:10153800526A9201934211D1FB6803F440327B68EE
:101548009B6A5B08013B1B049A4207D1FB6803F0C6
:1015580070627B68DB6A1B069A4201D0012300E0B7
:10156800002318461837BD4680BD00BF003802402A
:1015780080B584B000AF786039607B68002B01D1FA
:101588000123CCE0684B1B6803F007033A689A42D2
:101598000CD9654B3A68D2B21A70634B1B6803F0DA
:1015A80007033A689A4201D00123B8E07B681B68B8
:1015B80003F00203002B20D07B681B6803F00403B0
:1015C800002B05D0594B9B68584A43F4E05393606D
:1015D8007B681B6803F00803002B05D0534B9B68FE
:1015E800524A43F460439360504B9B6823F0F002E7
:1015F8007B689B684D4913438B607B681B6803F0CD
:101608000103002B44D07B685B68012B07D1474B53
:101618001B6803F40033002B19D101237FE07B689A
:101628005B68022B03D07B685B68032B07D13F4BB9
:101638001B6803F00073002B09D101236FE03B4BBB
:101648001B6803F00203002B01D1012367E0374B2D
:101658009B6823F003027B685B68344913438B6003
:1016680000F034FCF8600AE000F030FC0246FB6849
:10167800D31A41F28832934201D903234FE02B4B0E
:101688009B6803F00C027B685B689B009A42EBD175
:10169800254B1B6803F007033A689A420CD2224B89
:1016A8003A68D2B21A70204B1B6803F007033A68F5
:1016B8009A4201D0012332E07B681B6803F00403DF
:1016C800002B08D0194B9B6823F4E0527B68DB6839
:1016D800164913438B607B681B6803F00803002BD3
:1016E80009D0124B9B6823F460427B681B69DB00BE
:1016F8000E4913438B6000F021F802460B4B9B68A0
:101708001B0903F00F030A49CB5C22FA03F3094AC9
:101718001360094B1B68184600F094FB0023184619
:101728001037BD4680BD00BF003C02400038024073
:10173800E022000808000020000000202DE9B04F3A
:1017480090B000AF00237B630023FB6300233B635F
:101758000023BB63594B9B6803F00C03082B0DD087
:10176800082B00F2A180002B02D0042B03D09BE0B1
:10177800534BBB639BE0534BBB6398E04F4B5B6899
:1017880003F03F037B634D4B5B6803F48003002B3E
:1017980028D04A4B5B689B0900223B627A623B6A0D
:1017A800C3F308000021474B03FB01F2002300FBB1
:1017B80003F31344434AA0FB0212FA620A46BA62D0
:1017C800FA6A1344FB627B6B0022BB61FA61D7E9BA
:1017D8000623D7E90A01FFF731F902460B461346FB
:1017E800FB6353E0354B5B689B0900223B617A61E0
:1017F8003B69C3F3080A4FF0000B52465B464FF0B3
:1018080000004FF00001590141EAD261500102463F
:101818000B46B2EB0A0863EB0B094FF000024FF0DE
:1018280000034FEA891343EA98634FEA8812B2EB40
:10183800080463EB09054FF000024FF00003EB00CA
:1018480043EA5473E20014461D4614EB0A033B6056
:1018580045EB0B037B604FF000024FF00003D7E924
:10186800004529468B02214643EA915321468A02C4
:10187800104619467B6B0022BB60FA60D7E9022349
:10188800FFF7DCF802460B461346FB630B4B5B681D
:101898001B0C03F0030301335B003B63FA6B3B6BE8
:1018A800B2FBF3F3BB6302E0054BBB6300BFBB6B4A
:1018B80018464037BD46BDE8B08F00BF003802402B
:1018C8000024F40040787D0180B489B000AF7860CE
:1018D800396000237B6100233B610023BB61002347
:1018E800FB6159E10122FB6902FA03F37B613B6862
:1018F8001B687A6913403B613A697B699A4240F0F8
:1019080048813B685B6803F00303012B05D03B6803
:101918005B6803F00303022B30D17B689B68BB61D3
:10192800FB695B00032202FA03F3DB43BA69134045
:10193800BB613B68DA68FB695B0002FA03F3BA69CA
:101948001343BB617B68BA699A607B685B68BB615B
:101958000122FB6902FA03F3DB43BA691340BB6156
:101968003B685B681B0903F00102FB6902FA03F399
:10197800BA691343BB617B68BA695A603B685B68A4
:1019880003F00303032B17D07B68DB68BB61FB699B
:101998005B00032202FA03F3DB43BA691340BB611D
:1019A8003B689A68FB695B0002FA03F3BA69134360
:1019B800BB617B68BA69DA603B685B6803F0030364
:1019C800022B23D1FB69DA087B68083253F82230EE
:1019D800BB61FB6903F007039B000F2202FA03F3C4
:1019E800DB43BA691340BB613B681A69FB6903F0C2
:1019F80007039B0002FA03F3BA691343BB61FB694F
:101A0800DA087B680832B96943F822107B681B68DA
:101A1800BB61FB695B00032202FA03F3DB43BA698B
:101A28001340BB613B685B6803F00302FB695B0022
:101A380002FA03F3BA691343BB617B68BA691A6097
:101A48003B685B6803F44033002B00F0A28000235E
:101A5800FB60574B5B6C564A43F480435364544BCA
:101A68005B6C03F48043FB60FB68524AFB699B088C
:101A7800023352F82330BB61FB6903F003039B0078
:101A88000F2202FA03F3DB43BA691340BB617B6898
:101A9800494A934219D07B68484A934213D07B68DD
:101AA800474A93420DD07B68464A934207D07B68E9
:101AB800454A934201D1042308E0072306E00323A3
:101AC80004E0022302E0012300E00023FA6902F0A7
:101AD800030292009340BA691343BB613549FB691D
:101AE8009B080233BA6941F82320384B9B68BB61D5
:101AF8003B69DB43BA691340BB613B685B6803F42D
:101B08008013002B03D0BA693B691343BB612F4A8A
:101B1800BB6993602D4BDB68BB613B69DB43BA69EA
:101B28001340BB613B685B6803F40013002B03D0D0
:101B3800BA693B691343BB61244ABB69D360234B31
:101B48005B68BB613B69DB43BA691340BB613B68B7
:101B58005B6803F40033002B03D0BA693B69134375
:101B6800BB611A4ABB695360184B1B68BB613B6970
:101B7800DB43BA691340BB613B685B6803F480339D
:101B8800002B03D0BA693B691343BB610F4ABB6999
:101B98001360FB690133FB61FB690F2B7FF6A2AE73
:101BA80000BF00BF2437BD465DF8047B704700BF07
:101BB80000380240003801400000024000040240A2
:101BC80000080240000C024000100240003C0140A6
:101BD80080B485B000AF78600B467B807B681A695B
:101BE8007B881340002B02D00123FB7301E0002304
:101BF800FB73FB7B18461437BD465DF8047B7047C2
:101C080080B483B000AF78600B467B8013467B704E
:101C18007B78002B03D07A887B689A6103E07B8805
:101C28001A047B689A6100BF0C37BD465DF8047BD7
:101C38007047000080B485B000AF78607B6803F01F
:101C48000703FB600C4BDB68BB60BA684FF6FF0309
:101C58001340BB60FB681A02BB68134343F0BF63C1
:101C680043F40033BB60044ABB68D36000BF143739
:101C7800BD465DF8047B704700ED00E080B400AF1E
:101C8800044BDB681B0A03F007031846BD465DF8E2
:101C9800047B704700ED00E080B483B000AF0346DA
:101CA8003960FB7197F90730002B0ADB3B68DAB221
:101CB8000C4997F907301201D2B20B4483F800237C
:101CC8000AE03B68DAB20849FB7903F00F03043BEA
:101CD8001201D2B20B441A7600BF0C37BD465DF82C
:101CE800047B704700E100E000ED00E080B489B0BB
:101CF80000AFF860B9607A60FB6803F00703FB6126
:101D0800FB69C3F10703042B28BF0423BB61FB69EC
:101D18000433062B02D9FB69033B00E000237B61F7
:101D28004FF0FF32BB6902FA03F3DA43BB681A408B
:101D38007B699A404FF0FF317B6901FA03F3D9437D
:101D48007B680B40134318462437BD465DF8047B77
:101D58007047000080B582B000AF78607B68013BB7
:101D6800B3F1807F01D301230FE00A4A7B68013B6E
:101D780053600F214FF0FF30FFF78EFF054B002215
:101D88009A60044B07221A60002318460837BD469C
:101D980080BD00BF10E000E080B582B000AF786081
:101DA8007868FFF747FF00BF0837BD4680BD80B59C
:101DB80086B000AF0346B9607A60FB7300237B618D
:101DC800FFF75CFF78617A68B9687869FFF78EFF7A
:101DD800024697F90F3011461846FFF75DFF00BF1E
:101DE8001837BD4680BD80B582B000AF786078688E
:101DF800FFF7B0FF034618460837BD4680BD000010
:101E080080B500AF0E4B1B680D4A43F40073136096
:101E18000B4B1B680A4A43F480631360084B1B682A
:101E2800074A43F4807313600320FFF7B5FF0F20C0
:101E380000F008F8FFF7FCF80023184680BD00BF43
:101E4800003C024080B582B000AF7860124B1A683F
:101E5800124B1B7819464FF47A73B3FBF1F3B2FBBC
:101E6800F3F31846FFF7BFFF0346002B01D0012309
:101E78000EE07B680F2B0AD8002279684FF0FF30FC
:101E8800FFF795FF064A7B681360002300E00123F3
:101E980018460837BD4680BD080000200400002011
:101EA8000000002080B400AF064B1B781A46064B92
:101EB8001B681344044A136000BFBD465DF8047BE9
:101EC800704700BF040000202800002080B400AF45
:101ED800034B1B681846BD465DF8047B704700BF7E
:101EE8002800002080B584B000AF7860FFF7EEFFCF
:101EF800B8607B68FB60FB68B3F1FF3F05D00A4B15
:101F08001B781A46FB681344FB6000BFFFF7DEFF2F
:101F18000246BB68D31AFA689A42F7D800BF00BFD6
:101F28001037BD4680BD00BF0400002080B400AF5C
:101F3800064BD3F88830054A43F47003C2F888305A
:101F480000BFBD465DF8047B704700BF00ED00E0B0
:101F5800DFF834D00D480E490E4A002302E0D45869
:101F6800C4500433C4188C42F9D30B4A0B4C0023D9
:101F780001E013600432A242FBD3FFF7D7FF00F061
:101F880019F8FEF7F5FD7047000002200000002058
:101F98000C000020002300080C0000202C0000206A
:101FA800FEE702440346934200D1704703F8011B41
:101FB800F9E7000070B50D4D0D4C641BA410002608
:101FC800A64209D10B4D0C4C00F076F9641BA41005
:101FD8000026A64205D170BD55F8043B9847013646
:101FE800EEE755F8043B98470136F2E7F822000877
:101FF800F8220008F8220008FC2200082DE9F04722
:10200800089D0E4604460F46002B4AD194468C453F
:10201800B2FA82F260D942B1C2F12003974020FAA5
:1020280003F30CFA02FC1F4394404FEA1C4E1FFABC
:102038008CF6B7FBFEF1230C0EFB117743EA07433E
:1020480001FB06F098420AD91CEB030301F1FF37A4
:1020580080F01581984240F21281023963441B1ABC
:10206800A4B2B3FBFEF00EFB103344EA034400FBBA
:1020780006F6A6420AD91CEB040400F1FF3380F0EF
:102088000081A64240F2FD806444023840EA0140E3
:10209800A41B00211DB1D4400023C5E90043BDE8BD
:1020A800F0878B4205D90DB1C5E90001002108462A
:1020B800F5E7B3FA83F1002946D1B34202D382424D
:1020C80000F2F580841A66EB030201201746002D02
:1020D800E5D0C5E90047E2E7002A40F09380A1EB8C
:1020E8000C034FEA1C471FFA8CFE0121B3FBF7F6DD
:1020F80007FB1630230C43EA00430EFB06F0984218
:1021080008D91CEB030306F1FF3802D2984200F20B
:10211800D08046461B1AA4B2B3FBF7F007FB103376
:1021280044EA03440EFB00FEA64508D91CEB040450
:1021380000F1FF3302D2A64500F2B6801846A4EBA0
:102148000E0440EA0640A5E7C1F120078B4022FAB9
:1021580007FC4CEA030C06FA01FE20FA07F426FAFB
:1021680007F344EA0E0400FA01F84FEA1C404FEA6C
:102178001449B3FBF0FE1FFA8CF600FB1E3349EA44
:1021880003430EFB06F9994502FA01F20BD91CEB41
:1021980003030EF1FF3A80F08580994540F2828072
:1021A800AEF1020E6344A3EB0909A4B2B9FBF0F344
:1021B80000FB139944EA094403FB06F6A64208D932
:1021C8001CEB040403F1FF3068D2A64266D9023B37
:1021D800644443EA0E40A41BA0FB02E6B4427346E3
:1021E800B14652D34FD05DB1B8EB030264EB09049A
:1021F80004FA07F722FA01F31F43CC40C5E900743B
:1022080000214CE7C2F1200120FA01F30CFA02FC8C
:1022180026FA01F1964033434FEA1C471FFA8CFE19
:10222800B1FBF7F007FB1016190C41EA064100FB59
:102238000EF68E4204FA02F408D91CEB010100F1F3
:10224800FF382DD28E422BD902386144891B9BB2AC
:10225800B1FBF7F607FB161143EA014306FB0EF143
:10226800994208D91CEB030306F1FF3814D29942AE
:1022780012D9023E63445B1A46EA004136E7394602
:10228800EDE6184602E7F045ADD2BEEB020366EB79
:102298000C060138B146A6E74646ECE7034698E740
:1022A8004046D3E7D6467EE76444023847E7084607
:1022B8000DE7023E63442DE7F8B500BFF8BC08BC43
:1022C8009E467047F8B500BFF8BC08BC9E467047EC
:1022D8002000400080000000000000000000000016
:0822E8000102030406070809C6
:0822F00014FDFF7F0100000056
:0422F800E10A0008EF
:0422FC00B90A000813
:0C23000010000000010000000024F400A8
:0400000508001F5977
:00000001FF
